:1000000043C05DC06CC15BC05AC059C058C057C026
:1000100056C055C054C053C052C051C0CBCC4FC0C5
:100020004EC04DC04CC0524E44525452472E4F50B9
:1000300054005245545249472E4F5054004C564C90
:10004000545249472E4F505400424D452E4F505464
:10005000002E574156006576656E745800657665CA
:100060006E745800454E442E574156004D49444445
:100070004C452E57415600424547494E2E57415652
:10008000006576656E74580011241FBECFE5D2E07E
:10009000DEBFCDBF10E0A0E6B0E0E0EDFFE102C0C2
:1000A00005900D92A836B107D9F721E0A8E6B0E097
:1000B00001C01D92A23DB207E1F799DC87CFA0CF26
:1000C0008F929F92AF92BF92CF92DF92EF92FF9268
:1000D0001F93CF93DF9300D0CDB7DEB7AE014F5F54
:1000E0005F4F6CE070E088E790E08ED7892B11F0CD
:1000F00062E0E4C089819A810C9709F0DEC08091AA
:10010000800090918100A0918200B091830087359A
:100110009144A645B54409F0D0C010E080E8882E8F
:1001200084E8982E8EE1A82EB12CAE014F5F5F4F70
:1001300068E070E088E790E067D7892BC9F689818D
:100140009A81089709F0B9C0C0907C00D0907D00DA
:10015000E0907E00F0907F0080917800909179008F
:10016000A0917A00B0917B0086366DE6960764E731
:10017000A60760E2B60739F084369146A447B14637
:1001800009F455C082C0C0FE05C06FEFC61AD60A7A
:10019000E60AF60AD701C6014097A109B1098137DD
:1001A0009105A105B10508F088C0AE014F5F5F4F12
:1001B000B60188E790E028D7892B09F099CF89818B
:1001C0009A81A0E0B0E08C159D05AE05BF0509F051
:1001D00074C080917800813009F06FC010917A006E
:1001E0001AB980918600883019F0803109F065C015
:1001F0009AB1982B9AB984FD110F20917C0030910F
:100200007D0040917E0050917F00DA01C901805449
:100210009F41A109B10981349C49A105B10508F0AC
:100220004CC0C501B4019CDD215023BB7ECF1123FE
:1002300009F443C0C11484E0D806E104F104E8F1F4
:10024000412F50E041505109662757FD6095762FA8
:10025000DB01CA018C219D21AE21BF21892B8A2B74
:100260008B2B59F58091BD019091BE01A091BF01EA
:10027000B091C00184239523A623B723892B8A2B11
:100280008B2BD9F4B601C7011CC0C0FE05C02FEFEF
:10029000C21AD20AE20AF20A6091BD017091BE014F
:1002A0008091BF019091C0016C0D7D1D8E1D9F1D21
:1002B0007ED7892B09F439CF1BCF64E070E080E052
:1002C00090E00F900F90DF91CF911F91FF90EF90F2
:1002D000DF90CF90BF90AF909F908F90089518952A
:1002E00098B321E030E0082E01C0220F0A94EAF70B
:1002F0002077292B28BB089598B321E030E0082E01
:1003000001C0220F0A94EAF720772095292328BB01
:100310000895C2980895C29A0895A89583B7811147
:100320001DC01092A201109277001092760086E014
:1003300089BD83EA80BF81E08FBD8DBD8CBDEFE8B4
:10034000F1E03197F1F700C000008F5F8138A9F725
:1003500081E085BB82E083BF80E189BFFFEF23ECB2
:1003600089E0F15020408040E1F700C00000D1CF8B
:10037000D2DFA8952FEF81EE94E02150804090408D
:10038000E1F700C0000083B7882389F013BE8FE730
:100390008DBD8CBDEFE8F1E03197F1F700C00000B2
:1003A0008150B0F710BE1FBC80E88CBD8DBD089594
:1003B00099B33091610092959F709327809172005C
:1003C0002091730028272923209373008095892387
:1003D00080937200822B80958923382730936100A7
:1003E000909169009F5F909369000895E1DF90917B
:1003F000610080916800982381E009F480E008950D
:10040000D7DF80E008957F928F929F92AF92BF9244
:10041000CF92DF92EF92FF920F931F93CF93DF93D0
:1004200000D0CDB7DEB78C01862E69017A0110921B
:100430007600109277001092A2018091BD019091F8
:10044000BE01A091BF01B091C00180938E01909335
:100450008F01A0939001B09391012093A301309359
:10046000A4014093A5015093A60164FF02C055DF8B
:1004700002C082E083BF912CA12C92E0B92E20E231
:10048000722EC11424E0D206E104F10420F470DFDE
:1004900086E032DF68C086E023DF8091BD01909165
:1004A000BE019170B501681B790BAE014F5F5F4FC4
:1004B00080E090E0A9D589819A81C81AD90AE1081B
:1004C000F108A89592B78EB5890F8925909169009A
:1004D000980F909369000115110551F0F8010995E5
:1004E000882331F01092A201F82DFD7F8F2E26C0B7
:1004F00021E0C21624E0D206E104F10410F4B601B2
:1005000002C060E074E0AE014F5F5F4F80E090E0BA
:100510007BD59394892D8F7719F488B3872588BB71
:1005200089819A818115944049F4F4E0DF1AE10849
:10053000F108C114D104E104F10419F681FE12C0DE
:1005400060918E0170918F01809190019091910145
:100550002ED6C090A301D090A401E090A501F09008
:10056000A6018FCF13BE85E0BBDE0F900F90DF9109
:10057000CF911F910F91FF90EF90DF90CF90BF90A0
:10058000AF909F908F907F9008951F93CF93DF93AC
:10059000EC01162F10927600109277001092A201B3
:1005A00088E790E0D5D4892B01F58ADD9B01AC0169
:1005B000211584E038074105510568F484E090DE98
:1005C0009FEF23EC89E0915020408040E1F700C08C
:1005D000000084E006C0612F6061CE0114DFC8DE38
:1005E00086E0DF91CF911F9187CEDF91CF911F9150
:1005F0000895CF93C82F61E870E088E790E05DDC54
:10060000CF5CC0937D0068E770E082E991E0EED6B0
:10061000892B51F460E070E082E991E03BD721E062
:10062000892B19F420E001C021E0822FCF91089599
:10063000CF93DF93C82FD62FDCDF81112FC068E75F
:1006400071E082E991E026D7892B41F58091810103
:10065000882321F180918001827189F7D23039F0AD
:10066000D33041F0D13061F467E770E005C06CE64B
:1006700070E002C064E670E081E891E015DCC82F0C
:10068000C111DDCF8FE280937E0010927F0061E880
:1006900071E088E790E046DC80E001C081E0DF9116
:1006A000CF9108951F93CF93DF93C82F162F6DE539
:1006B00070E088E790E001DC81E38C0F80937D009F
:1006C0008C2F97DF811129C0C0E068E771E082E9D3
:1006D00091E0E0D6811121C0D0918101DD23E9F0C4
:1006E00080918001827189F762E670E081E891E093
:1006F00024DC892B51F3DE3241F3C1130CC08FE2AD
:1007000080937E0010927F0061E871E088E790E0BE
:1007100009DC80E003C0CF5FD8CF81E0DF91CF91CB
:100720001F91089584E0DCDD2FEF81EE94E02150ED
:1007300080409040E1F700C0000084E0DDDD2FEF55
:1007400081EE94E0215080409040E1F700C000002D
:100750000895CF92DF92EF92FF92CF93DF93EC0157
:100760006A017B014091BD015091BE016091BF01C2
:100770007091C00101DC4091C1015091C2016091B2
:10078000C3017091C401CE010496F6DB4091C5010E
:100790005091C6016091C7017091C801CE010896C1
:1007A000EBDB4091C9015091CA016091CB0170917E
:1007B000CC01CE010C96E0DBB701A601CE0140963C
:1007C000DF91CF91FF90EF90DF90CF90D5CBCF927C
:1007D000DF92EF92FF92CF93DF93EC01C8DB6B01C6
:1007E0007C016093BD017093BE018093BF01909323
:1007F000C001CE010496BBDB6093C1017093C201BE
:100800008093C3019093C401CE010896B0DB60933E
:10081000C5017093C6018093C7019093C801CE01B2
:100820000C96A5DB6093C9017093CA018093CB013C
:100830009093CC01C701B601BAD4CE014096DF91A6
:10084000CF91FF90EF90DF90CF9091CB8F929F92BE
:10085000AF92BF92CF92DF92EF92FF92CF93DF934E
:10086000C0917400D091750062507109810991099D
:10087000CE80DF80E884F98422E0C21AD108E10842
:10088000F1086C157D058E059F0580F42A8130E006
:1008900040E050E089DA49015A016A897B898C89F4
:1008A0009D89680D791D8A1D9B1D03C060E070E065
:1008B000CB01DF91CF91FF90EF90DF90CF90BF9071
:1008C000AF909F908F9008950F931F93CF93DF93D6
:1008D000EC01E0917400F0917500198218826C812E
:1008E0007D818E819F81613071058105910559F16E
:1008F000068117812085318560177107820793076C
:1009000010F5611571058105910539F420812330B9
:1009100021F46685778580899189688779878A87B8
:100920009B87611571058105910511F08FDF04C06A
:1009300066857785808991896C877D878E879F877B
:1009400080E090E002C081E090E0DF91CF911F91C4
:100950000F9108950F931F93CF93DF9300D000D092
:10096000CDB7DEB7E0917400F0917500623071058B
:100970008105910508F451C00681178120853185D4
:10098000601771078207930708F047C02081223063
:1009900019F02330E9F041C09B013327220F331FA8
:1009A000472F582F692F772782859385A485B58592
:1009B000480F591F6A1F7B1F02E010E0CE0101960D
:1009C0002BD7892B51F569817A8180E090E029C08D
:1009D0009B012F773327220F331F220F331FAB01C9
:1009E000BC01A7E07695679557954795AA95D1F7ED
:1009F00082859385A485B585480F591F6A1F7B1F83
:100A000004E010E0CE01019607D7892B31F469810B
:100A10007A818B819C819F7004C061E070E080E0EE
:100A200090E00F900F900F900F90DF91CF911F915A
:100A30000F910895CF92DF92EF92FF920F931F9341
:100A4000CF93DF93EC01E0907400F0907500088183
:100A500019810F5F1F4F0115110519F483E090E014
:100A600054C08C859D85AE85BF850097A105B105D5
:100A7000A9F398012F703327232B09F03FC001966B
:100A8000A11DB11D8C879D87AE87BF87688579853D
:100A90008A859B85F701611571058105910531F402
:100AA0008481958108171907C8F628C0228130E093
:100AB00021503109A801E4E056954795EA95E1F700
:100AC00024233523232BD1F445DF623071058105C2
:100AD0009105C8F0F701C680D780E084F1846C15D9
:100AE0007D058E059F0508F0B9CF688779878A87CD
:100AF0009B87ACDE6C877D878E879F8719830883F1
:100B000080E090E002C081E090E0DF91CF911F9102
:100B10000F91FF90EF90DF90CF900895CF92DF92EA
:100B2000EF92FF920F931F93CF93DF93EC016A0133
:100B30007B0102E010E02EEF31E06ED6892B29F523
:100B40008881998185359A4A11F526E330E0B7010D
:100B5000A601CE0161D6892B29F48881998186343A
:100B60009144B9F002E010E022E530E0B701A601BF
:100B7000CE0152D6892B39F481E02881398126347F
:100B8000314441F406C081E005C083E003C082E047
:100B900001C080E0DF91CF911F910F91FF90EF9006
:100BA000DF90CF900895BF92CF92DF92EF92FF92A5
:100BB0000F931F93CF93DF93EC016B017A01FA013E
:100BC00080814F5F5F4F8032C9F38F3209F47A0121
:100BD0001C821D821E821F82F7018081813208F0F3
:100BE0006AC0CE0171DEF60110828DC08F32C1F075
:100BF0008E3209F480C0921798F44FE9480F4A31B9
:100C000008F48052F801E90FF11D80839F5F832F64
:100C100031E0380FF701E80FF11D8081813230F7A4
:100C2000E30EF11C91E0813208F090E0F801938727
:100C3000CE014ADE009709F04DC0288139812F701E
:100C4000332705E0220F331F0A95E1F74C855D85B8
:100C50006E857F8500E210E0C601DED5892B09F0A4
:100C600044C0F60180818823C1F1B384B3FC2FC056
:100C70000A811B814BE050E0B801C6013FD9892BA6
:100C800031F5F801838581113CC0B4FE31C0F60115
:100C900084899589A0E0B0E0DC0199278827428DFE
:100CA000538D60E070E0842B952BA62BB72B8C83A3
:100CB0009D83AE83BF830A811B814BE050E060E2DD
:100CC00070E0C80128D990E080E028E0A1CFCE01F3
:100CD000B1DEB0CF83309105B1F4EA81FB81838529
:100CE000882331F083E090E00EC081E090E00BC0FB
:100CF00084E090E008C0283009F092CF98E02BE023
:100D000086CF80E090E0DF91CF911F910F91FF900F
:100D1000EF90DF90CF90BF9008954F925F926F92C7
:100D20007F928F929F92AF92BF92CF92DF92EF927B
:100D3000FF920F931F93CF93DF93CDB7DEB7A897A2
:100D40000FB6F894DEBF0FBECDBF5C0110927500E8
:100D500010927400009709F4DFC0B4D480FDDFC0A6
:100D600040E050E0BA01CE010196D8DE8130F9F4BE
:100D700000E110E02EEB31E040E050E0BA01CE019E
:100D800001964AD5892B19F081E090E0CAC08D8187
:100D9000811103C087E090E0C4C049845A846B8409
:100DA0007C84B301A201CE010196B8DE03C0412CC0
:100DB000512C3201833041F38111ECCF04E210E079
:100DC0002DE030E0B301A201CE01019625D5892B9B
:100DD000D9F66A857B8580E090E061157105810513
:100DE000910521F4688D798D8A8D9B8D2C8130E061
:100DF00040E050E0D9D769017A018A819B81AC013A
:100E000060E070E0440E551E661E771ED5011A96EE
:100E10004D925D926D927C921D97E9811296EC93B2
:100E200012972D813E8115963C932E9314978F81B6
:100E30009885A0E0B0E00097A105B10521F48C8968
:100E40009D89AE89BF89490124E0969487942A95AB
:100E5000E1F7840120E030E00DA31EA32FA338A703
:100E60008C019D01041B150B260B370BC901B80122
:100E70006C197D098E099F090DA11EA12FA138A50E
:100E8000601B710B820B930B2E2F30E040E050E083
:100E900067D72E5F3F4F4F4F5F4FD50116962D936B
:100EA0003D934D935C931997273FBFE03B07410566
:100EB000510508F46FCF273F3F4F4105510510F40E
:100EC00082E001C083E0D5018C93833029F488A1AE
:100ED00099A1AAA1BBA106C0D701C601840D951D89
:100EE000A61DB71DF50186879787A08BB18B0DA135
:100EF0001EA12FA138A5400E511E621E731E4C0C60
:100F00005D1C6E1C7F1C428A538A648A758A11821A
:100F1000B0927500A092740080E090E002C082E080
:100F200090E0A8960FB6F894DEBF0FBECDBFDF915C
:100F3000CF911F910F91FF90EF90DF90CF90BF90D6
:100F4000AF909F908F907F906F905F904F9008959B
:100F50000F931F93CF93DF93CDB7DEB7EC970FB608
:100F6000F894DEBF0FBECDBF0091740010917500E4
:100F700001151105D1F1F80111829E012F5C3F4F3F
:100F80003CA32BA3AC01BE016F5F7F4FCE018196C6
:100F90000ADE009771F58981882349F18C8584FDEB
:100FA00026C08D899E89A0E0B0E0DC0199278827C2
:100FB0004B8D5C8D60E070E0842B952BA62BB72BBE
:100FC000F801868F978FA0A3B1A38D8D9E8DAF8DD5
:100FD000B8A1828F938FA48FB58F168A178A108E2F
:100FE000118E81E0818380E003C086E001C083E050
:100FF00090E0EC960FB6F894DEBF0FBECDBFDF9148
:10100000CF911F910F9108954F925F926F927F92AF
:101010008F929F92AF92BF92CF92DF92EF92FF9208
:101020000F931F93CF93DF934C017B015A01C09123
:101030007400D0917500FA0111821082209709F492
:10104000A0C0898180FFA0C08A8D9B8DAC8DBD8D95
:101050004E895F89688D798D841B950BA60BB70B24
:10106000A70160E070E084179507A607B70708F4AA
:101070007C013401412CF2E05F2EE114F10409F40B
:1010800079C08E899F89A88DB98DAC01BD01517041
:1010900066277727452B462B472BD1F5DA80DA9444
:1010A000AC01BD01E9E07695679557954795EA95BE
:1010B000D1F7D422C1F4892B8A2B8B2B29F46E8D86
:1010C0007F8D88A199A105C06AA17BA18CA19DA15A
:1010D00041DC623071058105910508F44EC06AA3B8
:1010E0007BA38CA39DA36AA17BA18CA19DA1AEDB58
:1010F000611571058105910509F43FC0DC01CB0143
:101100008D0D911DA11DB11D8EA39FA3A8A7B9A7E9
:101110002E893F893170C201821B930B67018E15A6
:101120009F0508F46C014EA15FA168A579A5811403
:10113000910419F480E090E001C0C30186016CD3F2
:10114000892BD9F48E899F89A88DB98D8C0D9D1D11
:10115000A11DB11D8E8B9F8BA88FB98F6C0C7D1C30
:10116000EC18FD08F501808191818C0D9D1D918306
:10117000808383CF80E090E009C0198281E090E015
:1011800005C086E090E002C085E090E0DF91CF915D
:101190001F910F91FF90EF90DF90CF90BF90AF9095
:1011A0009F908F907F906F905F904F9008952F92B7
:1011B0003F924F925F926F927F928F929F92AF92E7
:1011C000BF92CF92DF92EF92FF920F931F93CF9334
:1011D000DF9300D000D0CDB7DEB79B012090740024
:1011E000309075002114310409F4E1C0D101119649
:1011F0004C91119740FFDEC05A964D915D916D91D3
:101200007C915D9769017C014C155D056E057F053C
:1012100010F46A017B01F10146885788608C718C5B
:10122000168A178A108E118EC114D104E104F104BC
:1012300009F4C3C08280912CA12CB12CB9E0880C98
:10124000991CAA1CBB1CBA95D1F741145104610426
:101250007104C9F1B1E04B1A510861087108C70166
:10126000B6016150710981099109A501940178D5F0
:1012700029833A834B835C83C301B201A5019401A6
:101280006FD589819A81AB81BC8182179307A407AE
:10129000B507C8F088279927DC0188199909AA0998
:1012A000BB0984219521A621B721F101868B978B5B
:1012B000A08FB18FC81AD90AEA0AFB0A62A173A1EA
:1012C00084A195A138C0D1015E966D917D918D91DB
:1012D0009C919197F10162A373A384A395A32BC062
:1012E00039DB623071058105910508F45BC0D101DD
:1012F00016960D911D912D913C91199760177107CC
:101300008207930708F04EC0F10162A373A384A380
:1013100095A306891789208D318D080D191D2A1D69
:101320003B1D56960D931D932D933C935997C818CA
:10133000D908EA08FB088C149D04AE04BF0480F2AF
:10134000F10186889788A08CB18C8C0C9D1CAE1CFA
:10135000BF1C868A978AA08EB18E78DA61157105D6
:1013600081059105F9F075016401A9E0F694E7940F
:10137000D794C794AA95D1F7F101028110E00150EA
:101380001109222717FD2095322FC022D122E222F7
:10139000F322C60ED71EE81EF91EC6A2D7A2E0A6EB
:1013A000F1A60BC0F101118281E090E008C086E057
:1013B00090E005C085E090E002C080E090E00F90F2
:1013C0000F900F900F90DF91CF911F910F91FF9091
:1013D000EF90DF90CF90BF90AF909F908F907F90D5
:1013E0006F905F904F903F902F900895EF92FF92F3
:1013F0000F931F93CF93DF93CDB7DEB7AC970FB6A4
:10140000F894DEBF0FBECDBF7C01AB0180917400AC
:1014100090917500892B61F1CE018196F70193833C
:101420008283BE016F5F7F4FC701BDDB0097E1F490
:1014300089818823B9F08C8584FF1DC04D895E8920
:1014400060E070E0BA01552744270B8D1C8D20E029
:1014500030E0402B512B622B732BF70144835583D3
:1014600066837783C70130DA8330910521F005C0A8
:1014700086E090E002C084E090E0AC960FB6F8946D
:10148000DEBF0FBECDBFDF91CF911F910F91FF90B7
:10149000EF900895CF92DF92EF92FF920F931F93F8
:1014A000CF93DF93CDB7DEB7AC970FB6F894DEBF1E
:1014B0000FBECDBF7C016B018091740090917500CF
:1014C000892B09F4AFC0CE018196D70113969C9366
:1014D0008E9312976115710519F083E090E020C09A
:1014E000C701F2D9A8C0F701208131812F703327BD
:1014F00005E0220F331F0A95E1F700E210E0CE016C
:1015000001968AD1892B09F090C08981882309F43A
:101510008FC09C85853E89F4C7018CDA0097A1F4C1
:10152000D7011C964D915D916D917C911F9741154E
:10153000510561057105B9F605C08E3269F393FD59
:10154000EBCF0DC0009759F0F7011486158616866B
:1015500017868330910519F0009709F06CC0F601E9
:101560003996D7011C964D915D916D917C911F9795
:10157000452B462B472B09F447C0CE010196DF01CE
:10158000AE01475F5F4FFC016191CF01603269F0AE
:10159000653009F465EE9D012F5F3F4FF9016C93B3
:1015A0008417950719F0D901EECFFD012985203266
:1015B00089F08EE28083CF01029621832A85203232
:1015C00029F0019622832B85203211F4FC0102C000
:1015D000238334968C85D60118968C9318974D8D5D
:1015E0005E8D6F8D78A14D935D936D937C93139772
:1015F000898D9A8D15969C938E9314978F89988DCB
:1016000017969C938E9316971082C70113DA833036
:10161000910589F4F701148615861686178680E0F1
:1016200090E009C086E090E006C081E090E08CCFB9
:1016300083E090E089CFAC960FB6F894DEBF0FBE82
:10164000CDBFDF91CF911F910F91FF90EF90DF9071
:10165000CF900895FF920F931F93CF93DF93C82FDE
:10166000D42F152F062FF72E87FF08C040E050E03B
:10167000BA0187E7EFDF8230F8F4CF77C09A0AD15A
:10168000C09808D18C2F1AD18F2D18D1802F16D148
:10169000812F14D18D2F12D1C03421F0C83421F004
:1016A00081E003C085E901C087E808D1CAE0F2D033
:1016B00087FF02C0C150D9F7DF91CF911F910F91E1
:1016C000FF900895EF92FF920F931F93CF93DF93B4
:1016D00000D000D01F92CDB7DEB781E081BB88E09B
:1016E0008DB90AE010E0D6D001501109011511059D
:1016F000D1F7C09808E512E0CDD0015011090115CD
:101700001105D1F740E050E0BA0180E4A3DF813059
:1017100009F052C04AEA51E060E070E088E49ADFE4
:10172000813021F57E0185E0E80EF11C8E010F5F0E
:101730001F4FB0D0F80181938F01EE15FF05C9F757
:101740008B818130C9F58C818A3AB1F508EA11E6BE
:1017500040E050E060E070E489EE7CDF8823B1F186
:10176000015011090115110599F726C040E050E01C
:10177000BA0189EE6FDF823020F492E0F92E99EE03
:1017800003C0FF24F39491E408EA11E640E050E03E
:10179000BA01892F9D835EDF9D81882331F001503E
:1017A00011090115110591F707C040E052E060E012
:1017B00070E080E54FDF8111F12CF092D101C09AE9
:1017C00069D081E0FF20E1F080E01AC040E050E005
:1017D000BA018AE73FDF8111EFCF8E010F5F1F4F04
:1017E00059D0F80181938F01EE15FF05C9F7898162
:1017F00086FF03C02CE0F22EE0CF84E0F82EDDCF90
:101800000F900F900F900F900F90DF91CF911F913D
:101810000F91FF90EF900895CF92DF92EF92FF9299
:101820000F931F93CF93DF93EC0179018091D10146
:1018300083FD07C0E9E0440F551F661F771FEA9537
:10184000D1F781E507DF882319F0C1E0D0E016C0A9
:1018500030E3C32E35E7D32E1DD08F3F39F481E01E
:10186000C81AD108C114D104B9F7EFCF8E3F69F778
:10187000A801B701CE012FD0C0E0D0E0C09A0AD0B5
:10188000CE01DF91CF911F910F91FF90EF90DF90EC
:10189000CF90089584E089BB89BB89BB89BB89BB94
:1018A00089BB89BB89BB89BB89BB89BB89BB89BB18
:1018B00089BB89BB89BB00008FB1089594E06BB3ED
:1018C00078E087FB61F96BBB880F99BB99BB7A9570
:1018D000C1F7D99A0895DC01FB0122E032E02E1B0A
:1018E0003F0B241B350B84E0319788F089BB89BB03
:1018F00089BB89BB89BB89BB89BB89BB89BB89BBC8
:1019000089BB89BB89BB89BB89BB89BBEDCF1097DC
:1019100031F0C0DF8D9341505040D9F736C0549913
:101920005695549947955199569551994795609177
:101930007600A8E7B0E0A60FB11D8091A2018C3F10
:10194000E0F7A8DFEE27549B03C0E82FA3DF805801
:10195000F82F519B0BC09EDF9927549B03C0982FF3
:1019600099DF8058E90FF81FF795E795ED93FD9300
:10197000F8948091A2018E5F8093A20178946E5FAB
:1019800041505040B1F66093760084E089BB89BB3A
:1019900089BB89BB89BB89BB89BB89BB89BB89BB27
:1019A00089BB89BB89BB89BB89BB89BB21503040BE
:1019B00069F708958F938FB78F93EF93FF9380917B
:1019C000A201825070F08093A201E0917700FF277E
:1019D000E858FF4F81918DBD81918CBDE857E09310
:1019E0007700FF91EF918F918FBF8F91189514BE63
:1019F000A89588E281BD8BEF8BBB86E08ABB85E032
:101A000088BB8FE787BB84E06BD47894912CCC247F
:101A1000C394D12CA895CB9B06C085E06DD4A8D4E7
:101A200081D6912CF7CF911082C084E059D485E003
:101A300063D487EA91E071D9892B09F075C085E0FC
:101A40004FD40EE610E0CAE6D0E041E3F42EF801F0
:101A50001082188266E570E088E790E02ED2F0925E
:101A60007D0068E770E082E991E0C0DC892B09F035
:101A700051C060E070E082E991E00CDD892B09F053
:101A800049C068E771E082E991E004DD892B09F043
:101A900041C0E0908101EE20E9F1809180018271E6
:101AA00081F761E570E081E891E00ED2892B41F089
:101AB000FEE2EF1629F0F80180818F5F8083E1CF8D
:101AC00069E470E081E891E0EFD1892B19F4888115
:101AD00088601EC06DE370E081E891E0E5D1892B5C
:101AE00019F488818160888362E370E081E891E085
:101AF000DBD1892B19F488818260888366E270E0EB
:101B000081E891E0D1D1892B09F0BBCF8881866033
:101B10008883B7CF0F5F1F4F2196F394F5E3FF1231
:101B200096CF9924939403C085E0E6D373CF84E0E5
:101B3000E3D33ED4809169008F5F80936900CAE649
:101B4000D0E03EE6E32E30E0F32E00E010E0802E01
:101B5000CB99F5C080916100F7016081662309F49B
:101B6000E4C05601082C02C0AA0CBB1C0A94E2F780
:101B700080958A2110926800988193FF80C0882305
:101B800009F47DC062E0802F53D5811113C088E72E
:101B900090E0DED9892B71F493D2AB01BC01409364
:101BA000A3015093A4016093A5017093A60180E165
:101BB00090E0CFD563E0882D3BD5811113C088E735
:101BC00090E0C6D9892B71F47BD2AB01BC01409364
:101BD000A3015093A4016093A5017093A60180E432
:101BE00090E0B7D561E0882D23D581119EC088E7AC
:101BF00090E0AED9892B09F098C062D29B01AC016C
:101C000060E180E092E0FFD380E190E0E0D59B01CD
:101C1000AC016093A3017093A4018093A5019093FC
:101C2000A601611571058105910579F0809161002A
:101C300090E0809590958A219B21892B31F060E07E
:101C400080E092E0E0D3B4D3DFCF80E490E0BFD572
:101C50009B01AC016093A3017093A4018093A50143
:101C60009093A601611571058105910521F060E051
:101C700080E092E0C8D37CD386E03ED356C090FF8C
:101C80002DC0882359F1809169005ED0792E672D8F
:101C9000882D08D5811149C08091610090E0809520
:101CA00090958A219B21892B09F43FC0A09268005E
:101CB000888182FF02C060E001C062E086EF91E0AF
:101CC00064D4888181FF31C082FF06C080916900A1
:101CD000F701608139D0792E6BD3D9CF9091600014
:101CE000982319F1809169002FD0792E672D882DC6
:101CF000D9D481111AC08091610090E080959095AF
:101D00008A219B21892B89F060E080E092E03DD41C
:101D1000888181FF0AC082FF06C080916900F701B7
:101D2000608112D0792E44D3E1CF0F5F1F4F2196EF
:101D3000FFEFEF1AFF0A0430110509F008CF809178
:101D400061008093600066CE991B79E004C0991F02
:101D5000961708F0961B881F7A95C9F78095089505
:101D6000A1E21A2EAA1BBB1BFD010DC0AA1FBB1F9F
:101D7000EE1FFF1FA217B307E407F50720F0A21B11
:101D8000B30BE40BF50B661F771F881F991F1A947E
:101D900069F760957095809590959B01AC01BD01A8
:101DA000CF01089568940013E894A0E0B0E0EAED54
:101DB000FEE01DC0EFEFE7F959016A015E23550F00
:101DC000EE08FE2C87019B01AC019E23990F660B48
:101DD000762FCB013BD0CDB7DEB7EAE024C02F92FF
:101DE0003F924F925F926F927F928F929F92AF92AB
:101DF000BF92CF92DF92EF92FF920F931F93CF93F8
:101E0000DF93CDB7DEB7CA1BDB0B0FB6F894DEBF8E
:101E10000FBECDBF09942A88398848885F846E84B4
:101E20007D848C849B84AA84B984C884DF80EE80FE
:101E3000FD800C811B81AA81B981CE0FD11D0FB607
:101E4000F894DEBF0FBECDBFED010895DF93CF93B1
:101E50009F92A0E49A2E0024D001E001F001169593
:101E60000795F794E794D794C794B794A79448F448
:101E70001068A20FB31FC41FD51FE61FF71F081E4F
:101E8000191E220F331F441F551F661F771F881FFF
:101E9000991F9A9421F79D01AE01BF01C001112441
:101EA0009F90CF91DF910895FB01DC018D9105900A
:101EB00080190110D9F3990B0895FB01DC010590FD
:101EC0000D920020E1F70895FB0155915523A9F0EB
:101ED000BF01DC014D9145174111E1F759F4CD01E6
:101EE0000590002049F04D9140154111C9F3FB01C7
:101EF0004111EFCF81E090E001970895FB01DC01F3
:101F000004C08D910190801921F441505040C8F7D0
:101F1000881B990B0895DC0101C06D93415050401E
:101F2000E0F70895FB01DC010D900020E9F711971F
:101F300001900D920020E1F70895FB015191552386
:101F4000A9F0BF01DC014D9145174111E1F759F4AA
:101F5000CD010190002049F04D9140154111C9F388
:101F6000FB014111EFCF81E090E001970895A6E1D8
:101F7000B0E044E050E00AC00396272F16D014D0FA
:101F8000252F13D0242F11C0DC01CB01FC01E199D6
:101F9000FECF06C0FFBBEEBBE09A31960DB20D92AC
:101FA00041505040B8F70895262FE199FECF9FBBCE
:101FB0008EBBE09A01970DB2021639F01CBA2DBB08
:101FC0000FB6F894E29AE19A0FBE0895F894FFCF05
:081FD000FFFF2E5741560000EF
:00000001FF
